S00D000073706565642E7372656306
S11300000C942A000C94B0000C94C1000C94D200FF
S11300100C9447000C9447000C9447000C94470040
S11300200C9447000C9483000C9447000C944900F2
S11300300C9447000C9447000C9447000C94470020
S11300400C9447000C9447000C9447000C94470010
S11300500C94470011241FBECFE5D8E0DEBFCDBF0E
S113006010E0A0E6B0E0E2E3F1E202C005900D92F8
S1130070A23FB107D9F721E0A2EFB0E001C01D9281
S1130080A032B207E1F70E94BF060C9497100C94BB
S113009000001F920F920FB60F9211242F933F93DB
S11300A04F935F936F937F938F939F93AF93BF937C
S11300B0EF93FF93809109018093190180911801B6
S11300C08093FC0080910B0180930A011092090136
S11300D01092180110920B016BE070E080E090E048
S11300E00E94420AFF91EF91BF91AF919F918F912E
S11300F07F916F915F914F913F912F910F900FBE20
S11301000F901F9018951F920F920FB60F92112403
S11301102F933F934F935F936F937F938F939F930B
S1130120AF93BF93EF93FF9340E050E061E470E03E
S113013086E090E00E944F0881E08093F500FF91F3
S1130140EF91BF91AF919F918F917F916F915F914B
S11301504F913F912F910F900FBE0F901F901895C4
S11301601F920F920FB60F9211248F938091090161
S11301708F5F809309018F910F900FBE0F901F9096
S113018018951F920F920FB60F9211248F9380919E
S113019018018F5F809318018F910F900FBE0F90FD
S11301A01F9018951F920F920FB60F9211248F93E0
S11301B080910B018F5F80930B018F910F900FBE85
S11301C00F901F90189561E070E081E490E00E9428
S11301D0140761E070E088E090E00E94C60641E008
S11301E050E061E470E086E090E00E94850741E021
S11301F050E061E470E087E090E00E94850740E011
S113020050E062E470E08BE090E00E94850740E0FB
S113021050E061E470E086E090E00E944F0840E026
S113022050E061E470E087E090E00E944F0886E0CF
S11302300E94930587E00E94930585E00E94930540
S113024060E070E080E090E00E94F7096BE070E00D
S113025080E090E00E94420A80E090E00E94D7098A
S113026060E070E081E090E00E94F7096BE070E0EC
S113027081E090E00E94420A81E090E00E94D70968
S113028060E070E082E090E00E94F7096BE070E0CB
S113029082E090E00E94420A65E670E080E090E02F
S11302A00E94580A0E940D0680E690E00E947B0698
S11302B06AE081E00E948E0689E690E00E947B0657
S11302C060E082E00E948E068DE690E00E947B064C
S11302D066E082E00E948E0681E790E00E947B0641
S11302E06AE082E00E948E0683E790E00E947B062B
S11302F060E182E00E948E0681E790E00E947B0626
S113030008954F925F926F927F928F929F92AF92D5
S1130310BF92CF92DF92EF92FF92C9C080E090E04B
S11303200E94F906BC01660F771F660F771F680FDE
S1130330791F072E000C880B990B0E94570C20E0A4
S113034030E040E85AE30E940C0D20E030E048EC35
S113035052E40E940C0D6093F8007093F9008093AE
S1130360FA009093FB0081E090E00E94F906BC0142
S1130370660F771F660F771F680F791F072E000C13
S1130380880B990B0E94570C20E030E040E85AE3B8
S11303900E940C0D20E030E048EC52E40E940C0D69
S11303A06093FD007093FE008093FF009093000122
S11303B02091F8003091F9004091FA005091FB002F
S11303C00E94AE0B20E030E040E05FE30E940C0DA1
S11303D060931001709311018093120190931301A3
S11303E06DE082E00E948E0660911001709111010F
S11303F080911201909113010E941F0CCB010E9465
S1130400A8066091100170911101809112019091E0
S1130410130120E030E040EA51E40E94070D181671
S11304200CF045C062E470E08BE090E00E94190992
S1130430892BE9F141E050E061E470E087E090E06D
S11304400E944F0819C065E670E082E090E00E94C7
S1130450580A82E090E00E94920B82E090E00E94B1
S11304606E0B61E470E087E090E00E942C098091BB
S1130470F2008F5F8093F2008091F200883C18F3C1
S113048082E090E00E946E0B40E050E061E470E096
S113049087E090E00E944F0841E050E061E470E0A2
S11304A086E090E00E944F0881E08093F300809101
S11304B0F300882309F432CF24C380E090E00E9443
S11304C0F906BC01660F771F660F771F680F791F47
S11304D0072E000C880B990B0E94570C20E030E08B
S11304E040E85AE30E940C0D20E030E048EC52E46E
S11304F00E940C0D6093F8007093F9008093FA0049
S11305009093FB0081E090E00E94F906BC01660F25
S1130510771F660F771F680F791F072E000C880B53
S1130520990B0E94570C20E030E040E85AE30E9407
S11305300C0D20E030E048EC52E40E940C0D609376
S1130540FD007093FE008093FF009093000182E011
S113055090E00E94F906BC01660F771F660F771FB3
S1130560680F791F072E000C880B990B0E94570CFB
S113057020E030E040E85AE30E940C0D20E030E037
S113058048EC52E40E940C0D609301017093020147
S1130590809303019093040183E090E00E94F906A4
S11305A0BC01660F771F660F771F680F791F072E30
S11305B0000C880B990B0E94570C20E030E040E8B7
S11305C05AE30E940C0D20E030E048EC52E40E9413
S11305D00C0D6093050170930601809307019093BD
S11305E00801C090F800D090F900E090FA00F09073
S11305F0FB008090FD009090FE00A090FF00B09062
S11306000001A5019401C701B6010E94AD0B20E0D1
S113061030E040E251E40E94070D181674F0A7017F
S11306209601C501B4010E94AD0B20E030E040E228
S113063051E40E94070D181654F481E08093F700EA
S113064065E670E081E090E00E94580A14C0A501BC
S11306509401C701B6010E94AE0B20E030E040E0F7
S11306605FE30E940C0D609310017093110180935D
S1130670120190931301C0900101D0900201E09007
S11306800301F09004018090050190900601A09070
S11306900701B0900801A5019401C701B6010E94A9
S11306A0AD0B20E030E040E251E40E94070D181643
S11306B074F0A7019601C501B4010E94AD0B20E0BE
S11306C030E040E251E40E94070D181654F481E032
S11306D08093F60065E670E081E090E00E94580A9D
S11306E00FC1A5019401C701B6010E94AE0B20E021
S11306F030E040E05FE30E940C0D609314017093BE
S113070015018093160190931701FAC080E090E0E0
S11307100E94F906BC01660F771F660F771F680FEA
S1130720791F072E000C880B990B0E94570C20E0B0
S113073030E040E85AE30E940C0D20E030E048EC41
S113074052E40E940C0D6093F8007093F9008093BA
S1130750FA009093FB0081E090E00E94F906BC014E
S1130760660F771F660F771F680F791F072E000C1F
S1130770880B990B0E94570C20E030E040E85AE3C4
S11307800E940C0D20E030E048EC52E40E940C0D75
S11307906093FD007093FE008093FF00909300012E
S11307A082E090E00E94F906BC01660F771F660F95
S11307B0771F680F791F072E000C880B990B0E9476
S11307C0570C20E030E040E85AE30E940C0D20E092
S11307D030E048EC52E40E940C0D609301017093E8
S11307E00201809303019093040183E090E00E944E
S11307F0F906BC01660F771F660F771F680F791F14
S1130800072E000C880B990B0E94570C20E030E057
S113081040E85AE30E940C0D20E030E048EC52E43A
S11308200E940C0D6B017C0160930501709306011D
S113083080930701909308014090F8005090F900CC
S11308406090FA007090FB008090FD009090FE0094
S1130850A090FF00B0900001A5019401C301B20172
S11308600E94AD0B20E030E040E251E40E941A0CFB
S1130870882384F4A3019201C501B4010E94AD0B45
S113088020E030E040E251E40E941A0C882314F482
S11308901092F7008090010190900201A090030152
S11308A0B0900401A7019601C501B4010E94AD0BEB
S11308B020E030E040E251E40E941A0C882384F4E2
S11308C0A5019401C701B6010E94AD0B20E030E000
S11308D040E251E40E941A0C882314F41092F600AA
S11308E08091F70081110CC08091F600811108C03D
S11308F08091F500811104C082E090E00E946E0BAB
S11309008091F700813009F401CF8091F6008130A5
S113091009F4FCCE609110017091110180911201D3
S11309209091130120E030E048EC51E40E94070D5F
S113093018160CF0AAC060911401709115018091F1
S113094016019091170120E030E048EC51E40E9438
S1130950070D18160CF099C081E08093F40040E074
S113096050E061E470E086E090E00E944F088DC0A2
S113097082E090E00E94F906BC01660F771F660FC3
S1130980771F680F791F072E000C880B990B0E94A4
S1130990570C20E030E040E85AE30E940C0D20E0C0
S11309A030E048EC52E40E940C0D60930101709316
S11309B00201809303019093040183E090E00E947C
S11309C0F906BC01660F771F660F771F680F791F42
S11309D0072E000C880B990B0E94570C20E030E086
S11309E040E85AE30E940C0D20E030E048EC52E469
S11309F00E940C0D6093050170930601809307011A
S1130A00909308012091010130910201409103016A
S1130A10509104010E94AE0B20E030E040E05FE31F
S1130A200E940C0D609314017093150180931601BC
S1130A309093170163E082E00E948E066091140196
S1130A407091150180911601909117010E941F0C5D
S1130A50CB010E94A8066091140170911501809148
S1130A6016019091170120E030E040EA50E40E9422
S1130A701A0C882354F41092F40041E050E061E42D
S1130A8070E086E090E00E944F088091F40081308D
S1130A9009F46ECF82E090E00E946E0B67E081E083
S1130AA00E948E06609110017091110180911201D3
S1130AB0909113010E941F0CCB010E94A80663E0D1
S1130AC082E00E948E06609114017091150180915C
S1130AD01601909117010E941F0CCB010E94A806D9
S1130AE06DE082E00E948E06609110017091110108
S1130AF080911201909113010E941F0CCB010E945E
S1130B00A8068091F300813009F4D7CCFF90EF90D0
S1130B10DF90CF90BF90AF909F908F907F906F9019
S1130B205F904F900895863029F0873081F08530AA
S1130B3039F51AC040E064E482E00E9485076BE066
S1130B4086E00E946F0986E00E94A90919C040E06E
S1130B5064E483E00E9485076BE087E00E946F09EC
S1130B6087E00E94A9090CC040E062E482E00E9490
S1130B7085076BE085E00E946F0985E00E94A90962
S1130B800E946B090895CF93C82F8BB38F709C2F4D
S1130B90907F892B8BBB8BB38F7D8BBB8BB3806892
S1130BA08BBB68E370E082E090E00E94420A8BB362
S1130BB08F778BBB68E070E082E090E00E94580A77
S1130BC082E090E00E94920B82E090E00E946E0B23
S1130BD02BB330E1C39FC0011124922F9F70892B46
S1130BE08BBB8BB380688BBB66E070E082E090E0E7
S1130BF00E94420A8BB38F778BBB69E070E082E07E
S1130C0090E00E94580A82E090E00E94920B82E0F9
S1130C1090E00E946E0BCF91089582E00E94C3057C
S1130C2088E20E94C3058CE00E94C30586E00E940E
S1130C30C30581E00E94C30566E070E082E090E0B5
S1130C400E94420A69E070E082E090E00E94580A43
S1130C5082E090E00E94920B82E090E00E946E0B92
S1130C600895CF93C82F8BB38F709C2F907F892BBF
S1130C708BBB8BB380628BBB8BB380688BBB68E30D
S1130C8070E082E090E00E94420A8BB38F778BBBC6
S1130C9068E070E082E090E00E94580A82E090E010
S1130CA00E94920B82E090E00E946E0B2BB330E125
S1130CB0C39FC0011124922F9F70892B8BBB8BB3D0
S1130CC080688BBB66E070E082E090E00E94420A9C
S1130CD08BB38F778BBB69E070E082E090E00E9479
S1130CE0580A82E090E00E94920B82E090E00E9419
S1130CF06E0BCF9108950F931F93CF938C01C0E097
S1130D0003C00E943106CF5FF801EC0FF11D808112
S1130D108111F7CFCF911F910F910895CF93DF9356
S1130D20D62F813019F0823029F007C080E80E9464
S1130D30C30503C080EC0E94C305C0E004C084E185
S1130D400E94C305CF5FDC17D0F7DF91CF910895E0
S1130D50CF93DF9300D01F92CDB7DEB74AE050E0C7
S1130D60BE016F5F7F4F0E94790DCE0101960E94F4
S1130D707B060F900F900F90DF91CF9108950E9402
S1130D80E3000E94810180E090E008958031D9F071
S1130D9038F4843001F18830D1F0823019F51FC065
S1130DA0803449F0803819F08032E1F408C087E8D3
S1130DB08093060017C086E88093060013C085E878
S1130DC0809306000FC084E8809306000BC083E87C
S1130DD08093060007C082E88093060003C080E881
S1130DE0809306006295660F660F607C609307002F
S1130DF008958770806480930700E6E0F0E08081C6
S1130E00806480838091060084FFFCCF30910400CD
S1130E108091050090E0982F8827E6E0F0E020819B
S1130E2020612083832B0895823401F118F48134E6
S1130E3039F05EC0833481F1843409F443C058C06E
S1130E40611102C01ABA0895613019F48FEF8ABB98
S1130E5008951F928F9387E790E09F938F930E944A
S1130E60A90D0F900F900F900F900895611102C07B
S1130E7017BA0895613019F48FEF87BB08951F9254
S1130E808F9387E790E09F938F930E94A90D0F9013
S1130E900F900F900F900895611102C014BA089535
S1130EA0613019F48FEF84BB08951F928F9387E705
S1130EB090E09F938F930E94A90D0F900F900F9035
S1130EC00F900895611102C011BA0895613019F4A8
S1130ED08FEF81BB08951F928F9387E790E09F93D4
S1130EE08F930E94A90D0F900F900F900F9008956B
S1130EF01F928F938DE990E09F938F930E94A90D89
S1130F000F900F900F900F9008956234B9F118F478
S1130F10613441F0B7C0633409F45CC0643409F44B
S1130F2085C0B0C041110EC04AB321E030E0B90120
S1130F3002C0660F771F8A95E2F7CB018095842360
S1130F408ABB0895413069F44AB321E030E0B90125
S1130F5002C0660F771F8A95E2F7CB01842B8ABB08
S1130F6008951F926F9387E790E09F938F930E9459
S1130F70A90D0F900F900F900F90089541110EC07E
S1130F8047B321E030E0B90102C0660F771F8A95AC
S1130F90E2F7CB018095842387BB0895413069F43F
S1130FA047B321E030E0B90102C0660F771F8A958C
S1130FB0E2F7CB01842B87BB08951F926F9387E7D9
S1130FC090E09F938F930E94A90D0F900F900F9024
S1130FD00F90089541110EC044B321E030E0B901EF
S1130FE002C0660F771F8A95E2F7CB0180958423B0
S1130FF084BB0895413069F444B321E030E0B90181
S113100002C0660F771F8A95E2F7CB01842B84BB5D
S113101008951F926F9387E790E09F938F930E94A8
S1131020A90D0F900F900F900F90089541110EC0CD
S113103041B321E030E0B90102C0759567958A9506
S1131040E2F7CB018095842381BB0895413069F494
S113105041B321E030E0B90102C0759567958A95E6
S1131060E2F7CB01842B81BB08951F926F9387E72E
S113107090E09F938F930E94A90D0F900F900F9073
S11310800F9008951F926F938DE990E09F938F9333
S11310900E94A90D0F900F900F900F900895623445
S11310A0B9F118F4613441F0B7C0633409F45CC099
S11310B0643409F485C0B0C041110EC04BB321E0C3
S11310C030E0B90102C0660F771F8A95E2F7CB01C1
S11310D0809584238BBB0895413069F44BB321E0A0
S11310E030E0B90102C0660F771F8A95E2F7CB01A1
S11310F0842B8BBB08951F926F9381ED90E09F9397
S11311008F930E94A90D0F900F900F900F90089548
S113111041110EC048B321E030E0B90102C0660FAE
S1131120771F8A95E2F7CB018095842388BB0895C5
S1131130413069F448B321E030E0B90102C0660FE0
S1131140771F8A95E2F7CB01842B88BB08951F9201
S11311506F9381ED90E09F938F930E94A90D0F9060
S11311600F900F900F90089541110EC045B321E0E8
S113117030E0B90102C0660F771F8A95E2F7CB0110
S11311808095842385BB0895413069F445B321E0FB
S113119030E0B90102C0660F771F8A95E2F7CB01F0
S11311A0842B85BB08951F926F9381ED90E09F93EC
S11311B08F930E94A90D0F900F900F900F90089598
S11311C041110EC042B321E030E0B90102C0660F04
S11311D0771F8A95E2F7CB018095842382BB08951B
S11311E0413069F442B321E030E0B90102C0660F36
S11311F0771F8A95E2F7CB01842B82BB08951F9257
S11312006F9381ED90E09F938F930E94A90D0F90AF
S11312100F900F900F9008951F926F9388EB90E0BA
S11312209F938F930E94A90D0F900F900F900F9092
S11312300895623459F018F4613431F00895633438
S113124039F0643439F0089589B3089586B3089564
S113125083B3089580B308956234B1F018F461340F
S113126031F008956334E9F0643441F108954BB3E7
S113127021E030E0B90102C0660F771F8A95E2F7DA
S1131280CB0184278BBB089548B321E030E0B9013A
S113129002C0660F771F8A95E2F7CB01842788BBCB
S11312A0089545B321E030E0B90102C0660F771F0D
S11312B08A95E2F7CB01842785BB089542B321E0E8
S11312C030E0B90102C0660F771F8A95E2F7CB01BF
S11312D0842782BB08958FB780688FBF08958630B6
S11312E029F08730B1F0853099F526C06A3019F0BD
S11312F06B3041F0089585B7826085BF85B78E7FD6
S113130085BF089585B7826085BF85B7816085BF35
S113131008956A3019F06B3041F0089585B78860FC
S113132085BF85B78B7F85BF089585B7886085BFE6
S113133085B7846085BF08956A3019F06B3029F051
S1131340089584B78F7B84BF089584B7806484BF75
S11313500895863029F0873081F0853039F51AC038
S11313604BB721E030E0B90102C0660F771F8A95C0
S1131370E2F7CB01842B8BBF08954BB721E030E01B
S1131380B90102C0660F771F8A95E2F7CB01842B5F
S11313908BBF08954BB721E030E0B90102C0660F5E
S11313A0771F8A95E2F7CB01842B8BBF0895813098
S11313B079F018F0823081F0089503B603FC04C07C
S11313C089B7816089BF089589B7826089BF08950C
S11313D089B7846089BF089505B403FC04C089B744
S11313E0806489BF089589B7806889BF0895813072
S11313F0B9F018F0823099F10895662319F061303C
S113140041F0089583B7877F83BF83B78F7B83BF02
S1131410089583B7886083BF83B78F7B83BF0895A4
S1131420662319F0613071F008958FB18E7F8FB902
S11314308FB18D7F8FB98EB1877F8EB98EB18F7E3C
S11314408EB908958FB18E7F8FB98FB18D7F8FB98B
S11314508EB188608EB98EB18F7E8EB90895662361
S113146019F0613041F0089585B5877F85BD85B554
S11314708F7B85BD089583B7886083BF83B78F7BD7
S113148083BF0895813059F018F0823051F00895E7
S113149003B603FC02C062BF08956CBF08956CB923
S11314A0089505B403FC02C064BD089563BD0895A6
S11314B0813009F45FC020F0823009F4B5C008958A
S11314C0643681F140F46830C9F0693009F1613063
S11314D009F003C109C06E36C9F16F3609F440C082
S11314E0653609F0FAC028C083B7816083BF83B72B
S11314F08D7F83BF83B78B7F83BF089583B78E7F30
S113150083BF83B7826083BF83B78B7F83BF089514
S113151083B7816083BF83B7826083BF83B78B7FC8
S113152083BF089583B78E7F83BF83B78D7F83BFC7
S113153083B7846083BF089583B7816083BF83B713
S11315408D7F83BF83B7846083BF089583B78E7F05
S113155083BF83B7826083BF83B7846083BF0895EA
S113156083B7816083BF83B7826083BF83B784609E
S113157083BF0895643681F140F46830C9F069305E
S113158009F1613009F0A9C009C06E36C9F16F369E
S113159009F440C0653609F0A0C028C08EB181604E
S11315A08EB98EB18D7F8EB98EB18B7F8EB9089531
S11315B08EB18E7F8EB98EB182608EB98EB18B7FE3
S11315C08EB908958EB181608EB98EB182608EB964
S11315D08EB18B7F8EB908958EB18E7F8EB98EB108
S11315E08D7F8EB98EB184608EB908958EB181607D
S11315F08EB98EB18D7F8EB98EB184608EB9089507
S11316008EB18E7F8EB98EB182608EB98EB18460B8
S11316108EB908958EB181608EB98EB182608EB913
S11316208EB184608EB90895643681F140F46830D7
S1131630C9F0693009F1613009F04FC009C06E3654
S1131640C9F16F3609F440C0653609F046C028C0B8
S113165085B58E7F85BD85B58D7F85BD85B5846057
S113166085BD089585B58E7F85BD85B5826085BDB0
S113167085B58B7F85BD089585B58E7F85BD85B580
S1131680826085BD85B5846085BD089585B581601A
S113169085BD85B58D7F85BD85B58B7F85BD089559
S11316A085B5816085BD85B58D7F85BD85B5846033
S11316B085BD089585B5816085BD85B5826085BD8C
S11316C085B58B7F85BD089585B5816085BD85B55C
S11316D0826085BD85B5846085BD0895813071F0D3
S11316E018F08230A9F0089583B78E7F83BF83B743
S11316F08D7F83BF83B78B7F83BF08958EB18E7F29
S11317008EB98EB18D7F8EB98EB18B7F8EB90895CF
S113171085B58E7F85BD85B58D7F85BD85B58B7F70
S113172085BD0895813059F018F0823079F008951C
S113173008B600FEFDCF88B7816088BF089508B65B
S113174002FEFDCF88B7846088BF089508B606FE00
S1131750FDCF88B7806488BF08955058BB27AA2757
S11317600E94C50B0C94CD0C0E94BF0C38F00E9453
S1131770C60C20F039F49F3F19F426F40C94BC0CE9
S11317800EF4E095E7FB0C94B60CE92F0E94DE0CF6
S113179058F3BA17620773078407950720F079F4A2
S11317A0A6F50C94000D0EF4E0950B2EBA2FA02D87
S11317B00B01B90190010C01CA01A0011124FF27FA
S11317C0591B99F0593F50F4503E68F11A16F040F5
S11317D0A22F232F342F4427585FF3CF46953795F4
S11317E02795A795F0405395C9F77EF41F16BA0BB9
S11317F0620B730B840BBAF09150A1F0FF0FBB1F67
S1131800661F771F881FC2F70EC0BA0F621F731FAF
S1131810841F48F4879577956795B795F7959E3F0C
S113182008F0B0CF9395880F08F09927EE0F97959D
S1131830879508950E94920C08F481E008950E940F
S1131840260C6894B1110C94010D08950E94E60CC5
S113185088F09F5798F0B92F9927B751B0F0E1F06D
S1131860660F771F881F991F1AF0BA95C9F714C01D
S1131870B13091F00E94000DB1E008950C94000D78
S1131880672F782F8827B85F39F0B93FCCF3869556
S113189077956795B395D9F73EF4909580957095B3
S11318A061957F4F8F4F9F4F0895E89409C097FB30
S11318B03EF490958095709561957F4F8F4F9F4F23
S11318C09923A9F0F92F96E9BB279395F695879567
S11318D077956795B795F111F8CFFAF4BB0F11F42A
S11318E060FF1BC06F5F7F4F8F4F9F4F16C08823D1
S11318F011F096E911C0772321F09EE8872F762F07
S113190005C0662371F096E8862F70E060E02AF047
S11319109A95660F771F881FDAF7880F9695879533
S113192097F90895990F0008550FAA0BE0E8FEEF08
S113193016161706E807F907C0F012161306E4078F
S1131940F50798F0621B730B840B950B39F40A2688
S113195061F0232B242B252B21F408950A2609F466
S1131960A140A6958FEF811D811D089597F99F676A
S113197080E870E060E008959FEF80EC0895002413
S11319800A941616170618060906089500240A94E0
S113199012161306140605060895092E0394000C66
S11319A011F4882352F0BB0F40F4BF2B11F460FFF5
S11319B004C06F5F7F4F8F4F9F4F089557FD90581E
S11319C0440F551F59F05F3F71F04795880F97FBFF
S11319D0991F61F09F3F79F08795089512161306B9
S11319E01406551FF2CF4695F1DF08C016161706E8
S11319F01806991FF1CF869571056105089408951D
S1131A00E894BB2766277727CB0197F908950E94AE
S1131A10920C08F48FEF08950E941F0D0C94CD0CC6
S1131A200E94BF0C38F00E94C60C20F0952311F0E0
S1131A300C94B60C0C94BC0C11240C94010D0E9453
S1131A40DE0C70F3959FC1F3950F50E0551F629F14
S1131A50F001729FBB27F00DB11D639FAA27F00D03
S1131A60B11DAA1F649F6627B00DA11D661F829F2A
S1131A702227B00DA11D621F739FB00DA11D621F0F
S1131A80839FA00D611D221F749F3327A00D611D2C
S1131A90231F849F600D211D822F762F6A2F11240E
S1131AA09F5750409AF0F1F088234AF0EE0FFF1F41
S1131AB0BB1F661F771F881F91505040A9F79E3F98
S1131AC0510580F00C94B60C0C94010D5F3FE4F3C7
S1131AD0983ED4F3869577956795B795F795E795EE
S1131AE09F5FC1F7FE2B880F911D9695879597F9F7
S1131AF008954532510520F4423010F00C94840DC1
S1131B00FB011082CB010895BB274A3031F499239D
S1131B1022F4BDE2909581959F4F0C94900DBB27C4
S1131B20FB015527AA27880F991FAA1FA41710F095
S1131B30A41B83955051B9F7A05DAA3308F0A95DA1
S1131B40A193009779F7B111B1931192CB010C9441
S1131B50B60FA0E0B0E0EFEAFDE00C947010AE0127
S1131B604B5F5F4FFA0161917191AF0180911C014C
S1131B7090911D010E94BF0DE2E00C948C10ABE02B
S1131B80B0E0E5ECFDE00C9460106C017B018A018F
S1131B90FC0117821682838181FFCCC1CE0101969C
S1131BA03C01F6019381F70193FD859193FF8191A7
S1131BB07F01882309F4BAC1853239F493FD8591F4
S1131BC093FF81917F01853229F4B60190E00E9450
S1131BD0C60FE7CF912C212C312CFFE1F315D8F05F
S1131BE08B3279F038F4803279F08332A1F4232DEA
S1131BF020611DC08D3261F0803369F4232D216092
S1131C0016C0832D8260382EE32DE4603E2E2AC058
S1131C10F32DF8601DC037FC2DC020ED280F2A30AD
S1131C2040F08E32B9F436FC81C1232D2064322E6B
S1131C3019C036FE06C08AE0989E200D1124922E0B
S1131C4011C0EAE02E9E200D1124222EF32DF06205
S1131C503F2E08C08C3621F4832D8068382E02C0B4
S1131C60883641F4F70193FD859193FF81917F01BB
S1131C708111B3CF982F9F7D9554933028F40C5F36
S1131C801F4F9FE399830DC0833631F0833771F082
S1131C90833509F059C021C0F801808189830E5F22
S1131CA01F4F88248394912C530113C02801F2E020
S1131CB04F0E511CF801A080B18036FE03C0692D7F
S1131CC070E002C06FEF7FEFC5010E94AB0F4C01C3
S1131CD08201F32DFF773F2E16C0280122E0420E29
S1131CE0511CF801A080B18036FE03C0692D70E05C
S1131CF002C06FEF7FEFC5010E94A00F4C01F32DCE
S1131D00F0683F2E820133FC1BC0822D90E08816C0
S1131D109906B0F4B60180E290E00E94C60F2A94BE
S1131D20F4CFF50137FC859137FE81915F01B6014F
S1131D3090E00E94C60F21102A9421E0821A910893
S1131D408114910471F7E8C0843611F0893641F5A5
S1131D50F80137FE07C060817181828193810C5F35
S1131D601F4F08C060817181072E000C880B990BEE
S1131D700E5F1F4FF32DFF763F2E97FF09C09095FE
S1131D808095709561957F4F8F4F9F4FF0683F2EE0
S1131D902AE030E0A3010E940210882E861845C074
S1131DA0853731F4232D2F7EB22E2AE030E025C072
S1131DB0932D997FB92E8F36C1F018F4883579F0B8
S1131DC0B5C0803719F0883721F0B0C0E92FE06141
S1131DD0BE2EB4FE0DC0FB2DF460BF2E09C034FE30
S1131DE00AC0292F2660B22E06C028E030E005C0C4
S1131DF020E130E002C020E132E0F801B7FE07C084
S1131E0060817181828193810C5F1F4F06C0608164
S1131E10718180E090E00E5F1F4FA3010E940210C9
S1131E20882E8618FB2DFF773F2E36FE0DC0232DFE
S1131E302E7FA22E891458F434FE0BC032FC09C044
S1131E40832D8E7EA82E05C0B82CA32C03C0B82CDD
S1131E5001C0B92CA4FE0FC0FE01E80DF11D808164
S1131E60803321F49A2D997EA92E09C0A2FE06C0C2
S1131E70B394B39404C08A2D867809F0B394A3FC78
S1131E8011C0A0FE06C0B21488F4280C922C9B1832
S1131E900EC0B21460F4B60180E290E00E94C60F56
S1131EA0B394F7CFB21418F42B1802C0982C212C39
S1131EB0A4FE10C0B60180E390E00E94C60FA2FE0B
S1131EC017C0A1FC03C088E790E002C088E590E059
S1131ED0B6010CC08A2D867859F0A1FE02C08BE2AF
S1131EE001C080E2A7FC8DE2B60190E00E94C60F1B
S1131EF0891438F4B60180E390E00E94C60F9A94E6
S1131F00F7CF8A94F301E80DF11D8081B60190E0CA
S1131F100E94C60F8110F5CF222009F442CEB601EB
S1131F2080E290E00E94C60F2A94F6CFF6018681E3
S1131F30978102C08FEF9FEF2B96E2E10C947C1007
S1131F40FC010590615070400110D8F78095909580
S1131F508E0F9F1F0895FC01615070400190011085
S1131F60D8F7809590958E0F9F1F0895DC01FC0192
S1131F70672F71917723E1F7329704C07C916D93B9
S1131F8070836291AE17BF07C8F308950F931F9330
S1131F90CF93DF93FB01238121FD03C08FEF9FEFDC
S1131FA02CC022FF16C046815781248135814217F7
S1131FB0530744F4A081B1819D012F5F3F4F3183CA
S1131FC020838C93268137812F5F3F4F378326836D
S1131FD014C08B01EC01FB010084F185E02D09950F
S1131FE0892BE1F6D80116968D919C91179701964D
S1131FF017969C938E931697CE01DF91CF911F91E4
S11320000F910895FA01AA27283051F1203181F166
S1132010E8946F936E7F6E5F7F4F8F4F9F4FAF4FEC
S1132020B1E03ED0B4E03CD0670F781F891F9A1FFF
S1132030A11D680F791F8A1F911DA11D6A0F711DB3
S1132040811D911DA11D20D009F468943F912AE0BF
S1132050269F11243019305D3193DEF6CF010895A7
S1132060462F4770405D4193B3E00FD0C9F7F6CFD8
S1132070462F4F70405D4A3318F0495D31FD4052A0
S1132080419302D0A9F7EACFB4E0A6959795879536
S113209077956795BA95C9F7009761057105089515
S11320A09B01AC010A2E06945795479537952795C1
S11320B0BA95C9F7620F731F841F951FA01D089559
S11320C02F923F924F925F926F927F928F929F9244
S11320D0AF92BF92CF92DF92EF92FF920F931F9332
S11320E0CF93DF93CDB7DEB7CA1BDB0B0FB6F894E3
S11320F0DEBF0FBECDBF09942A88398848885F8423
S11321006E847D848C849B84AA84B984C884DF8093
S1132110EE80FD800C811B81AA81B981CE0FD11D77
S11321200FB6F894DEBF0FBECDBFED010895F8944D
S1052130FFCFDB
S11321325350454544203D20004B4D480054503DEA
S113214200250042503D004552524F522057524FF3
S11321524E4720504F525420444952454354494F0C
S11321624E204F4E20504F52542025730045525258
S11321724F5220494E495449414C495A494E4720ED
S1132182504F5254202573004552524F52205752F9
S11321924954494E47204F4E20504F5254202573E4
S11321A2004552524F522057524F4E472050494EEB
S11321B22056414C5545204F4E20504F5254202515
S10521C27300A4
S9030000FC
